:03000000020CC12E
:0C0CC100787FE4F6D8FD7581130209EC81
:100C5B0057726F6E6720496E7075740057726F6EA6
:0B0C6B00672046756E6374696F6E00B1
:1009EC00E4F509F50A750B2BF50CF50D120CCD126F
:1009FC000B1E120CD88F08120C76AF08120CA1AF7C
:100A0C0008120AB48E098F0AE50A640D450960E2E2
:100A1C00120CD88F08120CA1AF08120BEA8F0BE541
:100A2C000B646560CD120CD88F08120CA1AF0812A4
:100A3C000AB48E0C8F0DE50D640D450C60B4120CD0
:100A4C00D88F08120CA1E508643D7048E50B24D33F
:100A5C00601724FE602D24B7601C244D7094E50AA9
:100A6C00250DFFE509350C800AC3E50A950DFFE558
:100A7C0009950CFE8018AC0CAD0DAE09AF0A12082E
:100A8C002D800BAC0CAD0DAE09AF0A12083F120B4A
:100A9C00660209FEE508B44306120C760209FEE470
:080AAC00FFFE120C1C0209FE02
:0B0CCD00E4F5807590F0F5A0F5B02272
:040C3F007F107E277D
:100C4300E4FDFCC3ED9FEE6480F8EC6480985007EC
:070C53000DBD00010C80EC57
:010C5A002277
:100CA100D2B78FA0D2B67F967E00120C43C2B60295
:020CB1000C43F2
:040C76007F017E007C
:100C7A00C2B78FA0D2B67F967E00120C43C2B602CC
:020C8A000C4319
:100B1E007F987E3A120C437F307E00120C7A7F94BF
:100B2E007E11120C437F307E00120C7A7F2C7E01D8
:100B3E00120C437F301E120C7A7F8A7E02120C43F7
:100B4E007F387E00120C7A7F0C7E00120C7A120C0B
:080B5E00767F067E00020C7A8E
:0E0CB3007F027E00120C7A7FDC7E05020C436D
:060BAD008B0F8A10891174
:100BB300E4F512F513AB0FAA10A911120C8CC3E5BF
:100BC300139FE5129E501DAB0FAA10A91185138226
:100BD300851283120800FF120CA10513E51370D5CB
:070BE300051280D1020CB3E2
:10090900C290D291D292D293209409120C3F309482
:10091900FD7F3722209509120C3F3095FD7F382243
:10092900209609120C3F3096FD7F39222097091233
:100939000C3F3097FD7F2F22D290C291D292D29351
:10094900209409120C3F3094FD7F3422209509121E
:100959000C3F3095FD7F3522209609120C3F3096C9
:10096900FD7F3622209709120C3F3097FD7F7822B0
:10097900D290D291C292D293209409120C3F309412
:10098900FD7F3122209509120C3F3095FD7F3222DF
:10099900209609120C3F3096FD7F332220970912C9
:1009A9000C3F3097FD7F2D22D290D291D292C293E3
:1009B900209409120C3F3094FD7F4322209509129F
:1009C9000C3F3095FD7F3022209609120C3F30965E
:1009D900FD7F3D22209709120C3F3097FD7F2B2286
:0309E9007F6E22FC
:0A0CD8007F6EBF6E0512090980F857
:010CE20022EF
:100AB400EF1208750ADD300AE1310AE6320AEB3337
:100AC4000AF0340AF5350AFA360AFF370B04380BF4
:100AD40009390B0E4300000B13E4FEFF227E007F56
:100AE40001227E007F02227E007F03227E007F049B
:100AF400227E007F05227E007F06227E007F072261
:100B04007E007F08227E007F0922120C768006E494
:0A0B1400FFFE120C1C7E007F0D2274
:100BEA008F0EE50EB44306120C767F6522E50E647D
:100BFA002B601CE50E642D6016E50E64786010E526
:100C0A000E642F600A7F017E00120C1C7F6522AFE2
:020C1A000E22A8
:100C1C00AB07AA06120C76EA7005EB14600304808D
:100C2C00087BFF7A0C796780067BFF7A0C795B1264
:030C3C000BAD22DB
:040B6600AB07AA0629
:100B6A00E4F50EF9C3EA6480948050107CFF7DFF9F
:100B7A0012082DAA06AB077F2D120CA17C007D0A54
:100B8A00AF03AE0212083FA907E960062430FF123C
:100B9A000CA1E975F00AA4FEC3EB9EF50E2430FF02
:030BAA00020CA199
:10080000BB010CE58229F582E5833AF583E02250AD
:1008100006E92582F8E622BBFE06E92582F8E222F7
:0D082000E58229F582E5833AF583E4932211
:10082D00EF8DF0A4A8F0CF8CF0A428CE8DF0A42EDF
:02083D00FE2299
:10083F00C2D5EC30E709B2D5E4C39DFDE49CFCEED4
:10084F0030E715B2D5E4C39FFFE49EFE1208B4C390
:10085F00E49DFDE49CFC80031208B430D507C3E48B
:06086F009FFFE49EFE2243
:10087500D083D082F8E4937012740193700DA3A312
:1008850093F8740193F5828883E473740293686026
:06089500EFA3A3A380DF26
:100C8C00E4FFFE12089B600C0FEF70010E09E97077
:050C9C00F20A80EF22C6
:10089B00BB010689828A83E0225002E722BBFE025B
:0908AB00E32289828A83E493228E
:1008B400BC000BBE0029EF8DF084FFADF022E4CC28
:1008C400F875F008EF2FFFEE33FEEC33FCEE9DECF1
:1008D400984005FCEE9DFE0FD5F0E9E4CEFD22ED37
:1008E400F8F5F0EE8420D21CFEADF075F008EF2F81
:1008F400FFED33FD4007985006D5F0F222C398FD72
:050904000FD5F0EA220E
:00000001FF
